:100000000C943E000C945B000C945B000C945B0021
:100010000C945B000C945B000C945B000C945B00F4
:100020000C945B000C945B000C945B000C945B00E4
:100030000C945B000C945B000C945B000C945B00D4
:100040000C945B000C945B000C945B000C945B00C4
:100050000C945B000C945B000C945B000C945B00B4
:100060000C945B000C945B000C945B000C945B00A4
:100070000C945B000C945B000C945B0011241FBE7D
:10008000CFEFD8E0DEBFCDBF12E0A0E0B1E0E2E408
:10009000F7E102C005900D92A033B107D9F722E035
:1000A000A0E3B2E001C01D92AF33B207E1F70E94B6
:1000B00013030C949F0B0C94000081E08093B90013
:1000C0008093B80084E08093BC00089584EA809314
:1000D000BC008091BC008823E4F78091B9000895AA
:1000E00084E98093BC0008958093BB0084E88093EA
:1000F000BC008091BC008823E4F78091B90008958A
:10010000CF93DF93D82FC62F0E9466008D2F0E94B9
:10011000740080E00E9474008C2F0E9474000E9482
:100120007000DF91CF910895CF93DF93D82FC62F22
:100130000E9466008D2F0E94740080E40E9474006B
:100140008C2F0E9474000E947000DF91CF9108955F
:1001500084EA8093BC008091BC008823E4F78091FE
:10016000B900887F089584E98093BC008091BC0029
:1001700084FDFCCF08958093BB0084E88093BC008D
:100180008091BC008823E4F78091B900887F0895AE
:1001900084E88093BC008091BC008823E4F78091C0
:1001A000BB000895CF93DF93C82FD62F0E94A800DD
:1001B000883099F480EC0E94BB00883181F48C2F48
:1001C0000E94BB00883269F48D2F0E94BB008832E8
:1001D00051F40E94B30080E007C081E005C082E0D6
:1001E00003C083E001C084E0DF91CF9108950F93B5
:1001F0001F93CF93C82F8B010E94A8008830D9F499
:1002000080EC0E94BB008831C1F48C2F0E94BB009F
:100210008832A9F40E94A800803199F481EC0E94F0
:10022000BB00803481F40E94C800F80180830E94E2
:10023000B30080E009C081E007C082E005C083E030
:1002400003C084E001C085E0CF911F910F91089514
:1002500020912501309126012230310561F024F4EE
:1002600021303105B9F008952330310549F02430AB
:10027000310559F0089560EA76E881E090E008954C
:1002800060E177E280E090E0089564E670E080E06D
:1002900090E0089560E472E48FE090E00895CF92DA
:1002A000DF92EF92FF920F931F930E94E7040E9448
:1002B0004A058330A9F4809125019091260184306C
:1002C000910539F481E090E0909326018093250117
:1002D00005C0019690932601809325010E944D054B
:1002E0000E944A058230D1F40E94280100912B011E
:1002F00010912C0120912D0130912E01680179017E
:10030000C61AD70AE80AF90AC0922B01D0922C012A
:10031000E0922D01F0922E010E944D050E944A05A7
:100320008130D1F40E94280100912B0110912C0101
:1003300020912D0130912E01DC01CB01800F911F06
:10034000A21FB31F80932B0190932C01A0932D012A
:10035000B0932E010E944D051F910F91FF90EF90D9
:10036000DF90CF900895CF93DF93CDB7DEB7C05A1B
:10037000D1090FB6F894DEBF0FBECDBF8091240126
:10038000882351F08BE0EFE2F1E0DE01119601905D
:100390000D928A95E1F709C08BE0EAE3F1E0DE0116
:1003A000119601900D928A95E1F780912501909127
:1003B000260182309105A1F01CF4019739F02DC07F
:1003C00083309105B9F00497F9F027C089E0E5E49E
:1003D000F1E0DE01999601900D928A95E1F71DC03A
:1003E00089E0EEE4F1E0DE01999601900D928A95A4
:1003F000E1F713C089E0E7E5F1E0DE0199960190AD
:100400000D928A95E1F709C089E0E0E6F1E0DE01AE
:10041000999601900D928A95E1F760912B01709168
:100420002C0180912D0190912E012AE0AE014F5AAE
:100430005F4F0E94490B80913002882309F46AC003
:1004400080912B0190912C01A0912D01B0912E0152
:100450008F3726E9920728E9A207B1055CF08EE004
:10046000E9E6F1E0DE01A758BF4F01900D928A95B1
:10047000E1F7B9C08F3322E492072FE0A207B1055C
:100480005CF08FE0E7E7F1E0DE01A758BF4F019095
:100490000D928A95E1F7A7C08F3926E8920721E0EF
:1004A000A207B1055CF080E1E6E8F1E0DE01A758C3
:1004B000BF4F01900D928A95E1F795C08F3027E2EA
:1004C0009207A105B1055CF081E1E6E9F1E0DE010A
:1004D000A758BF4F01900D928A95E1F784C0873EDF
:1004E0009340A105B1055CF082E1E7EAF1E0DE01AD
:1004F000A758BF4F01900D928A95E1F774C083E130
:10050000E9EBF1E0DE01A758BF4F01900D928A950B
:10051000E1F769C080912B0190912C01A0912D01F0
:10052000B0912E018F3726E9920728E9A207B1057D
:100530005CF08EE0ECECF1E0DE01A758BF4F0190DB
:100540000D928A95E1F74FC08F3322E492072FE096
:10055000A207B1055CF08FE0EAEDF1E0DE01A758FB
:10056000BF4F01900D928A95E1F73DC08F3926E883
:10057000920721E0A207B1055CF080E1E9EEF1E02D
:10058000DE01A758BF4F01900D928A95E1F72BC06D
:100590008F3027E29207A105B1055CF081E1E9EF18
:1005A000F1E0DE01A758BF4F01900D928A95E1F767
:1005B0001AC0873E9340A105B1055CF082E1EAE0F4
:1005C000F2E0DE01A758BF4F01900D928A95E1F746
:1005D0000AC083E1ECE1F2E0DE01A758BF4F0190D1
:1005E0000D928A95E1F7BE0167587F4FCE018F5A71
:1005F0009F4F0E943E0BBE016F5A7F4FCE01019666
:100600000E943E0BBE01675D7F4FCE0101960E94A6
:100610003E0BC056DF4F0FB6F894DEBF0FBECDBF06
:10062000DF91CF910895CF93DF93CDB7DEB72C97AD
:100630000FB6F894DEBF0FBECDBFE1E6F0E080E874
:100640008083108281B18D7F81B981B18B7F81B927
:1006500081B1877F81B98AB180618AB981B18160B6
:1006600081B98FE097E20197F1F700C0000082B1F5
:1006700082B99FEF21EE84E0915020408040E1F765
:1006800000C0000082B1816082B98FE097E20197DB
:10069000F1F700C000000E945D000E941A080E944D
:1006A000E0040E94500588E091E00E949F059FEFC2
:1006B00029E688E1915020408040E1F700C0000029
:1006C00080B1827090E095958795898380B1847020
:1006D00090E095958795959587958A8380B18870E8
:1006E00090E09595879595958795959587958B83BA
:1006F0008981811124C088E091E00E949F0580E0FB
:1007000092E1AAE7B0E080932B0190932C01A09393
:100710002D01B0932E0181E090E09093260180930B
:100720002501109224010E944D059FEF29E688E1E2
:10073000915020408040E1F700C0000026C08A812F
:10074000811110C09091300281E08927809330029E
:100750009FEF29E688E1915020408040E1F700C0FA
:100760000000AECF8B81811110C09091240181E0F7
:100770008927809324019FEF29E688E1915020404A
:100780008040E1F700C000009BCF809124018823C6
:1007900021F08BB180618BB902C08BB11BB8009185
:1007A0002701109128012091290130912A0160919F
:1007B0002B0170912C0180912D0190912E01061733
:1007C00017072807390751F0609327017093280114
:1007D0008093290190932A010E9430070E94B3015F
:1007E0000E949F0580913002811103C00E944F0139
:1007F000E0C083E392E00E943408809133028435A4
:1008000091F490913402983571F4909135029033BF
:1008100051F481E0809324018FE39CE90197F1F783
:1008200000C00000C6C0843589F490913402983528
:1008300069F490913502913349F4109224018FE3C9
:100840009CE90197F1F700C00000B3C0843531F591
:1008500090913402983511F5909135029B33F1F463
:1008600080912401882369F084E590E00E942608A5
:1008700088E590E00E94260880E390E00E94260828
:10088000B8CF84E590E00E94260888E590E00E94B9
:10089000260881E390E00E942608ABCF8634A9F4B5
:1008A00090913402913489F4E3E3F2E080E38083B1
:1008B0008183CF010E94170B60932B0170932C0151
:1008C00080932D0190932E0174C0893409F058C093
:1008D00090913402963409F053C007C080E390E051
:1008E0000E9426080F5F1F4F02C000E010E0033097
:1008F0001105A4F360912B0170912C0180912D01C1
:1009000090912E018E010C5F1F4F2AE0A8010E94DA
:10091000490BF80101900020E9F731977F01E01AB7
:10092000F10A00E010E006C080E390E00E94260893
:100930000F5F1F4F89E090E08E199F090817190774
:100940009CF300E010E00CC0E4E0F0E0EC0FFD1FD1
:10095000E00FF11F808190E00E9426080F5F1F4F7B
:100960000E151F058CF300E010E006C080E390E058
:100970000E9426080F5F1F4F0D301105BCF339CFC1
:10098000823409F036CF80913402843409F031CFBB
:100990001092300200E010E009C0F801E050FF4F73
:1009A000808190E00E9426080F5F1F4F07301105DD
:1009B000A4F38FE59AEE0197F1F700C0000080CE16
:1009C00081B18F7881B982B1806782B9089580B191
:1009D00082958F7091E089278170209131022111D9
:1009E00090E0892319F081E08093310280B120B139
:1009F000829586958695837091E0892722952F7040
:100A000092279170892390E04091310250E0842335
:100A10009523892B31F082E080933202809331025A
:100A200017C080B120B182958F7031E0832726FBFB
:100A3000222720F9982F9223892F90E08423952351
:100A4000892B31F081E08093320282E08093310281
:100A500080B190B18295817096FB992790F9892396
:100A600091E020913102223009F090E0882319F0C2
:100A700091111092310205990CC02FE78AE196E09E
:100A8000215080409040E1F700C0000083E0809357
:100A90003202089580913202089510923202089530
:100AA00061E070E088E790E00E9480006AE370E017
:100AB00088E790E00E94800069E070E088E790E0BD
:100AC0000E94800066E070E088E790E00E9480006D
:100AD0006EE170E088E790E00E94800069E370E0DA
:100AE00088E790E00E9480006BE170E088E790E08A
:100AF0000E9480006EE670E088E790E00E9480002F
:100B000067E570E088E790E00E9480006AE770E0A7
:100B100088E790E00E94800068E370E088E790E05A
:100B20000E9480006FE070E088E790E00E94800003
:100B300061E070E088E790E00E9480000895CF9225
:100B4000DF92EF92FF920F931F93CF93DF937C017D
:100B500061E070E088E790E00E94800060E870E06B
:100B600088E790E00E9480006894CC24C7F8D12CDC
:100B7000C0E0D0E028C02097F1F0CE016AE070E03C
:100B80000E94B30A892BB9F480EEC816D10459F437
:100B900061E070E088E790E00E9480006894CC24D7
:100BA000C7F8D12C03C0E0E2CE0ED11CB60188E715
:100BB00090E00E948000F801608170E088E790E09A
:100BC0000E949400219687010C0F1D1FF80180815F
:100BD0008111D1CFDF91CF911F910F91FF90EF90B5
:100BE000DF90CF9008954F925F926F927F928F9295
:100BF0009F92AF92BF92CF92DF92EF92FF920F93AC
:100C00001F93CF93DF9300D000D01F92CDB7DEB7F4
:100C10008D83C62E49015A0127013801CA01B90145
:100C20000E945B0969837A838B839C83C801B70127
:100C30000E945B099B01AC0169817A818B819C8157
:100C40000E94BA0820E030E040E053E40E94E90945
:100C50000E942C09D12CE12CF12CCC0CDD1CEE1CBB
:100C6000FF1CCC0CDD1CEE1CFF1CCC0CDD1CEE1C98
:100C7000FF1CCC0CDD1CEE1CFF1CCC0CDD1CEE1C88
:100C8000FF1CCC0CDD1CEE1CFF1CCC0CDD1CEE1C78
:100C9000FF1CC60ED71EE81EF91E22E0D21AE1087C
:100CA000F108880C991CAA1CBB1C880C991CAA1C56
:100CB000BB1C880C991CAA1CBB1C880C991CAA1C68
:100CC000BB1C880C991CAA1CBB1C880C991CAA1C58
:100CD000BB1C880C991CAA1CBB1CA30192010E947E
:100CE000A30A861A970AA80AB90A652D8D810E945F
:100CF000D200642D8D818F5F0E94D200D701C60182
:100D000088279927A370BB27BD01882799278D8144
:100D10008E5F0E94D2006D2D8D818D5F0E94D2006A
:100D20006C2D8D818C5F0E94D200442455248FE06D
:100D300068227724032E3CE0769467945794479476
:100D40003A95D1F7302DD501C40188279927AF7086
:100D5000BB27642D6A2B8D818B5F0E94D200692D89
:100D60008D818A5F0E94D200682D8D81895F0E94EB
:100D7000D2000F900F900F900F900F90DF91CF91B6
:100D80001F910F91FF90EF90DF90CF90BF90AF90A9
:100D90009F908F907F906F905F904F900895CF922B
:100DA000DF92EF92FF92CF93DF93C82FD22F6A0189
:100DB0007B0184E0C81AD108E1088EEFF80ACC0C58
:100DC000DD1CEE1CFF1CCC0CDD1CEE1CFF1CCC0C37
:100DD000DD1CEE1CFF1CCC0CDD1CEE1CFF1CCC0C27
:100DE000DD1CEE1CFF1CCC0CDD1CEE1CFF1CCC0C17
:100DF000DD1CEE1CFF1C60E08C2F0E94D20061E025
:100E000081E08C0F0E94D200D701C6018827992764
:100E1000A370BB276D2F6A2B82E08C0F0E94D2003B
:100E20006D2D83E08C0F0E94D2006C2D84E08C0F1E
:100E30000E94D20060E085E08C0F0E94D20060E04A
:100E400086E08C0F0E94D20060E087E08C0F0E9449
:100E5000D200DF91CF91FF90EF90DF90CF90089577
:100E60004F925F926F927F928F929F92AF92BF92BA
:100E7000CF92DF92EF92FF920F931F93CF93DF9366
:100E800000D000D01F92CDB7DEB76B017C0160E0CF
:100E900079EE84EA95E3A70196010E94C70A490109
:100EA0005A0120FF05C081E0881A9108A108B10805
:100EB000A5019401C701B6010E94A30A20E438E706
:100EC0004DE751E00E94C70A2D830E945B0920EF85
:100ED0003FEF4FE759E40E94E90920E23CEB4EEB7B
:100EE0005BE40E94BA080E942C092B013C010E947D
:100EF0005B0920EF3FEF4FE759E40E94BA0869838E
:100F00007A838B839C83ED816E2F70E080E090E08C
:100F10000E945D0929813A814B815C810E944E08C3
:100F200020E23CEB4EEB5BE40E94E9090E942C09B5
:100F3000A70196010E94C70ACA01B9010E945B0974
:100F40000E94560A0E942C09D62EEE24EA94FE2C0A
:100F50000FE010E0A30192016D818AE10E94F30588
:100F600020E0B501A4018AE20E94CF0620E0B5018D
:100F7000A40182E30E94CF066CEA81EB0E94D200BA
:100F80006FE480E10E94D2006FE481E10E94D20010
:100F900060E070E080E10E94F700E0E0F0E0E080D7
:100FA000F180E894E5F8FF246E2D80E10E94D200E4
:100FB0006E2D81E10E94D2006E2D82E10E94D2004E
:100FC0006E2D83E10E94D2006E2D84E10E94D2003A
:100FD0006E2D85E10E94D20060E085EA0E94D20079
:100FE0006D2D86EA0E94D2006CEA81EB0E94D2004D
:100FF00020E0B501A4018AE20E94CF0620E0B501FD
:10100000A40182E30E94CF060F900F900F900F90E3
:101010000F90DF91CF911F910F91FF90EF90DF9094
:10102000CF90BF90AF909F908F907F906F905F9088
:101030004F9008951092CD0087E68093CC0088E110
:101040008093C90086E08093CA0008959091C800FB
:1010500095FFFCCF8093CE0008958091C80088232F
:10106000E4F78091CE0008950F931F93CF93DF9301
:101070008C01C0E0D0E009C00E942D08F801EC0FFF
:10108000FD1F80838B3321F02196CC30D105A4F352
:10109000DF91CF911F910F9108955058BB27AA2738
:1010A0000E9465080C94AF090E94A10938F00E94C3
:1010B000A80920F039F49F3F19F426F40C949E09F6
:1010C0000EF4E095E7FB0C949809E92F0E94C00903
:1010D00058F3BA17620773078407950720F079F46D
:1010E000A6F50C94E2090EF4E0950B2EBA2FA02D74
:1010F0000B01B90190010C01CA01A0011124FF27C5
:10110000591B99F0593F50F4503E68F11A16F040BF
:10111000A22F232F342F4427585FF3CF46953795BE
:101120002795A795F0405395C9F77EF41F16BA0B83
:10113000620B730B840BBAF09150A1F0FF0FBB1F31
:10114000661F771F881FC2F70EC0BA0F621F731F7A
:10115000841F48F4879577956795B795F7959E3FD7
:1011600008F0B0CF9395880F08F09927EE0F979568
:10117000879508950E94CE080C94AF090E94A80993
:1011800058F00E94A10940F029F45F3F29F00C9427
:10119000980951110C94E3090C949E090E94C0090E
:1011A00068F39923B1F3552391F3951B550BBB2796
:1011B000AA2762177307840738F09F5F5F4F220FDB
:1011C000331F441FAA1FA9F335D00E2E3AF0E0E8D2
:1011D00032D091505040E695001CCAF72BD0FE2F1C
:1011E00029D0660F771F881FBB1F261737074807B0
:1011F000AB07B0E809F0BB0B802DBF01FF27935868
:101200005F4F3AF09E3F510578F00C9498090C948A
:10121000E3095F3FE4F3983ED4F3869577956795AD
:10122000B795F7959F5FC9F7880F911D969587959C
:1012300097F90895E1E0660F771F881FBB1F6217BB
:1012400073078407BA0720F0621B730B840BBA0B79
:10125000EE1F88F7E09508950E94C80988F09F570F
:1012600098F0B92F9927B751B0F0E1F0660F771FCA
:10127000881F991F1AF0BA95C9F714C0B13091F0C0
:101280000E94E209B1E008950C94E209672F782FDB
:101290008827B85F39F0B93FCCF386957795679585
:1012A000B395D9F73EF490958095709561957F4FF1
:1012B0008F4F9F4F0895E89409C097FB3EF4909597
:1012C0008095709561957F4F8F4F9F4F9923A9F01F
:1012D000F92F96E9BB279395F695879577956795AE
:1012E000B795F111F8CFFAF4BB0F11F460FF1BC0F2
:1012F0006F5F7F4F8F4F9F4F16C0882311F096E985
:1013000011C0772321F09EE8872F762F05C0662332
:1013100071F096E8862F70E060E02AF09A95660FEB
:10132000771F881FDAF7880F9695879597F90895A4
:1013300097F99F6780E870E060E008959FEF80EC88
:10134000089500240A94161617061806090608952B
:1013500000240A9412161306140605060895092E91
:101360000394000C11F4882352F0BB0F40F4BF2B00
:1013700011F460FF04C06F5F7F4F8F4F9F4F089540
:1013800057FD9058440F551F59F05F3F71F0479536
:10139000880F97FB991F61F09F3F79F0879508951B
:1013A000121613061406551FF2CF4695F1DF08C03A
:1013B000161617061806991FF1CF86957105610557
:1013C00008940895E894BB2766277727CB0197F9FF
:1013D00008950E94FC090C94AF090E94A10938F0FD
:1013E0000E94A80920F0952311F00C9498090C9400
:1013F0009E0911240C94E3090E94C00970F3959F83
:10140000C1F3950F50E0551F629FF001729FBB27FB
:10141000F00DB11D639FAA27F00DB11DAA1F649F97
:101420006627B00DA11D661F829F2227B00DA11D4A
:10143000621F739FB00DA11D621F839FA00D611DD0
:10144000221F749F3327A00D611D231F849F600DF1
:10145000211D822F762F6A2F11249F5750409AF01A
:10146000F1F088234AF0EE0FFF1FBB1F661F771FA6
:10147000881F91505040A9F79E3F510580F00C9471
:1014800098090C94E3095F3FE4F3983ED4F3869502
:1014900077956795B795F795E7959F5FC1F7FE2B11
:1014A000880F911D9695879597F908950E94C80910
:1014B000E8F09E37E8F09639B8F49E3848F4672F84
:1014C000782F8827985FF9CF8695779567959395BC
:1014D0009539D0F3B62FB1706B0F711D811D20F4BB
:1014E00087957795679593950C947A0A0C94950A4D
:1014F0000C94E309882371F4772321F09850872B0B
:10150000762F07C0662311F499270DC09051862BC2
:1015100070E060E02AF09A95660F771F881FDAF76F
:10152000880F9695879597F908959F3F31F09150D0
:1015300020F4879577956795B795880F911D9695B7
:10154000879597F90895DB018F939F930E94E90A8D
:10155000BF91AF91A29F800D911DA39F900DB29F4F
:10156000900D1124089597FB072E16F4009407D0D0
:1015700077FD09D00E94F40A07FC05D03EF490954F
:1015800081959F4F0895709561957F4F0895A1E2D1
:101590001A2EAA1BBB1BFD010DC0AA1FBB1FEE1FED
:1015A000FF1FA217B307E407F50720F0A21BB30B38
:1015B000E40BF50B661F771F881F991F1A9469F7B4
:1015C00060957095809590959B01AC01BD01CF0110
:1015D00008950E94080BA59F900DB49F900DA49FA5
:1015E000800D911D11240895AA1BBB1B51E107C05A
:1015F000AA1FBB1FA617B70710F0A61BB70B881FA3
:10160000991F5A95A9F780959095BC01CD01089531
:10161000A29FB001B39FC001A39F700D811D112433
:10162000911DB29F700D811D1124911D08951F936E
:10163000FC0199278827BC01E89411911032E9F345
:10164000193010F01E30C8F31B3251F01D3249F42E
:10165000689406C00E94580B610F711D811D911D79
:10166000119110531A30B0F33EF490958095709517
:1016700061957F4F8F4F9F4F1F910895FB01DC01B4
:101680000D900020E9F7119701900D920020E1F7ED
:101690000895BB272A3051F4992342F4BDE2909576
:1016A0008095709561957F4F8F4F9F4F0C946E0B77
:1016B000592F482F372F262F660F771F881F991F06
:1016C000660F771F881F991F620F731F841F951F56
:1016D000660F771F881F991F0895BB27FA01A62F51
:1016E0006217710581059105330B30FB66F0AA275F
:1016F000660F771F881F991FAA1FA21710F0A21B41
:1017000063953850A9F7A05DAA3308F0A95DA193AD
:1017100036F7B111B1931082CA010C948F0BDC0122
:10172000FC01672F71917723E1F7329704C07C9118
:101730006D9370836291AE17BF07C8F30895F89454
:02174000FFCFD9
:10174200476F6F64627965002020202020202020CE
:101752002020202068656C6C6F2020202020776F6D
:10176200726C640001010040420F0000127A0020F6
:1017720052656365697665202000205472616E733C
:101782006D697420002B2F2D202031204D002B2F2E
:101792002D203130306B002B2F2D202031306B006B
:1017A2002B2F2D202031303000487A2050432063E7
:1017B20074726C20202000487A20205043206374E9
:1017C200726C20202000487A20202050432063742D
:1017D200726C20202000487A202020205043206371
:1017E20074726C20202000487A2020202020504350
:1017F200206374726C20202000487A202020202050
:10180200205043206374726C20202000487A2042CA
:1018120044206374726C20202000487A20204244C5
:10182200206374726C20202000487A2020204244D9
:10183200206374726C20202000487A2020202042ED
:1018420044206374726C20202000487A20202020DB
:10185200204244206374726C20202000487A2020A9
:10186200202020204244206374726C20202000003B
:00000001FF
